:100000000C94EA1A0C94121B0C94121B0C94121BE5
:100010000C94121B0C94121B0C94121B0C94121BAC
:100020000C94121B0C94121B0C94121B0C948D221A
:100030000C94121B0C94121B0C94121B0C94121B8C
:100040000C9424210C94121B0C94F2200C94CC20C0
:100050000C94121B0C94121B0C94121B0C94121B6C
:100060000C946E210C94121B010000000100000092
:10007000010000000100000001000000010000007C
:10008000010000000100000001000000010000006C
:10009000010000000100000001000000010000005C
:1000A000010000000100000001000000010000004C
:1000B000000003000300020003000200030002002E
:1000C000030002000300020003000200030002001C
:1000D0000300020001000000010000000100000018
:1000E000010000000100000001000000010000000C
:1000F00001000000010000000100000001000000FC
:1001000000000100010000000100000001000000EB
:1001100001000000010000000100000001000000DB
:1001200001000000010000000100000001000000CB
:1001300001000000010000000100000001000000BB
:1001400001000000010000000100000001000200A9
:10015000020003000300020003000200030002008B
:10016000030002000300020003000200030002007B
:10017000030002000300020003000200030002006B
:10018000030002000300020003000200030002005B
:10019000030002000300020003000200030002004B
:1001A0000200010001000000010000000100000049
:1001B000010000000100000001000000010000003B
:1001C000010000000300020003000200030002001F
:1001D000030002000300020003000200030002000B
:1001E00003000200030002000300020003000200FB
:1001F00002000300030002000300020003000200EB
:1002000003000200030002000300020003000200DA
:1002100003000200030002000300020003000200CA
:1002200003000200030002000300020003000200BA
:1002300003000200030002000300020001000000AE
:1002400000000100010000000300020003000200A2
:10025000030002000300020003000200030002008A
:100260000300020003000000010000000100000084
:10027000010000000100000001000000010000007A
:10028000010002000300020003000200030002005C
:10029000030002000300020003000200010000004E
:1002A000010000000100000001000000010000004A
:1002B000010000000100000001000000010000003A
:1002C000010000000100000001000000010000002A
:1002D000010000000100000001000000010000001A
:1002E000010000000100000001000000010000000A
:1002F00001000000010000000100020003000200F4
:1003000003000200030002000300020003000200D9
:1003100003000200010000000100000001000000D5
:1003200001000000010000000100000001000000C9
:1003300000000000000000000100000001000000BB
:1003400001000000010000000100000001000000A9
:100350000100000001000000010000000100000099
:100360000100000001000000010000000100000089
:100370000300020003000200030002000300020069
:100380000300020003000200030002000300020059
:100390000300020003000200030002000300020049
:1003A0000300020003000200030002000300020039
:1003B0000300020003000200030002000300020029
:1003C0000300020003000200030002000300020019
:1003D0000100000001000000010000000100000019
:1003E0000100000001000000030002000300020001
:1003F00003000200030002000300020003000200E9
:1004000003000200030002000300020003000200D8
:1004100003000200030002000300020003000200C8
:1004200002000200020002000100000001000000C2
:1004300001000000010000000100000001000000B8
:10044000010002000300020003000200030002009A
:100450000300020003000200030002000300020088
:100460000300020003000200030002000300020078
:100470000300020003000200030002000300020068
:100480000300020003000200030002000300020058
:100490000300020003000000010000000100000052
:1004A0000100000001000000010000000100000048
:1004B0000100000001000000010002000300020032
:1004C0000300020003000200030002000300020018
:1004D0000300020003000200030002000300020008
:1004E00003000200030002000300020003000200F8
:1004F00003000200030002000300020003000200E8
:1005000003000200030002000300020003000000D9
:1005100000000000000000000100000001000000D9
:1005200001000000010000000100000001000000C7
:1005300001000200030002000300020003000200A9
:1005400003000200010000000100000001000000A3
:100550000100000001000000010000000100000097
:100560000100000001000000010000000100000087
:100570000100000001000000010000000100000077
:100580000100000001000000010000000100000067
:100590000100000001000000010000000100000057
:1005A0000100000001000000010002000300020041
:1005B000030002000300020003000200010000002B
:1005C0000100000001000000010000000100000027
:1005D0000100000001000000010000000100000017
:1005E0000100000001000000010000000100000007
:1005F00001000000010000000100000001000000F7
:1006000000000000000000000300020003000200E0
:1006100003000200030002000300020003000200C6
:1006200003000000010000000100000003000200C0
:1006300003000200030000000100000001000000B0
:100640000300020003000200030002000300020096
:100650000300020003000200030002000300020086
:100660000300020003000200030002000300020076
:100670000300000001000000010000000300020070
:100680000300020003000200030002000300020056
:100690000300020003000200030002000300020046
:1006A0000300020003000200030002000300020036
:1006B0000300020003000200030002000300020026
:1006C0000300000001000000010000000300020020
:1006D0000300020003000200030002000300020006
:1006E00003000200030002000300020002000300F6
:1006F00003000200030002000300020003000200E6
:1007000003000200030002000300020003000000D7
:1007100001000000010000000300020003000200CD
:1007200003000200030002000300020003000200B5
:1007300003000200030002000300020003000200A5
:100740000300020003000200030002000300020095
:100750000300020003000200030002000300000087
:10076000010000000100000003000200030002007D
:100770000300020003000200030002000300020065
:100780000300020003000200030002000300020055
:100790000300020003000200030002000300020045
:1007A0000300020003000200030002000300000037
:1007B000010000000100000003000200030002002D
:1007C0000300020003000200030002000300020015
:1007D0000300020003000200020003000300020005
:1007E0000100000001000000010000000300020001
:1007F00001000000010000000100000001000000F5
:1008000001000000010000000100000001000000E4
:1008100001000000010000000100000001000000D4
:1008200001000000010000000100000001000000C4
:1008300001000000030002000100000001000000B0
:1008400001000000010000000100000001000000A4
:100850000100000001000000010000000100000094
:100860000100000003000200000000000000000082
:100870000100000001000000010000000300020070
:100880000100000001000000010000000100000064
:100890000100000001000000010000000100000054
:1008A0000100000001000000010000000100000044
:1008B0000100000001000000010000000100000034
:1008C0000100000003000200010000000100000020
:1008D0000100000001000000010000000100000014
:1008E0000100000001000000010000000100000004
:1008F00001000000010000000000000000000000F6
:1009000003000200030002000300020003000200D3
:1009100003000200030002000300020001000000C7
:1009200001000000010000000100000001000000C3
:1009300001000000010000000100000001000000B3
:1009400001000000010000000100000001000000A3
:100950000100000001000200030002000300020089
:100960000300020003000200030002000300020073
:100970000300020003000200030002000300020063
:100980000300020003000200030002000300020053
:100990000300020003000200030002000300020043
:1009A0000300020003000200030002000300020033
:1009B0000300020003000200030002000100000027
:1009C0000100000001000000010000000100000023
:1009D0000100000001000000010000000100000013
:1009E0000100000000000000010001000100000003
:1009F00001000000030002000300020003000200E7
:100A000003000200030002000300020003000200D2
:100A100003000200030002000300020003000200C2
:100A200003000200030002000300020003000200B2
:100A300003000200030002000300020003000200A2
:100A40000300020003000200030002000300020092
:100A50000300020003000200030002000300000084
:100A60000100000001000000010000000100000082
:100A70000100000001000000010000000100000072
:100A80000100000001000000010000000100000062
:100A90000100000003000200030002000300020046
:100AA0000300020003000200030002000300020032
:100AB0000300020003000200030002000300020022
:100AC0000300020003000200030002000300020012
:100AD0000300020002000200030003000300020002
:100AE0000100000001000000010000000100000002
:100AF00001000000010000000100000001000000F2
:100B000001000000010000000100000001000000E1
:100B100001000000010000000100000001000000D1
:100B200001000000010000000100000001000000C1
:100B300001000000010000000100000001000000B1
:100B400001000000010000000100000001000000A1
:100B50000100000001000000010000000100000091
:100B60000100020003000200030002000300020073
:100B70000300020003000200030002000300020061
:100B8000030002000300000001000000010000005B
:100B90000100000001000000010000000100000051
:100BA0000100000001000000010000000100000041
:100BB0000100000001000000010000000100000031
:100BC0000100000001000000000000000000000023
:100BD0000100000001000000010000000100000011
:100BE0000100000001000000010000000100000001
:100BF00001000000010000000100000001000000F1
:100C000001000000010000000100000001000000E0
:100C100001000000010000000100000001000000D0
:100C200001000000010000000100000001000000C0
:100C300001000000010000000100000001000000B0
:100C400001000000010000000100000001000000A0
:100C50000100000001000000010000000100000090
:100C60000100000001000000010000000100000080
:100C70000100000001000000010000000100000070
:100C80000100000001000000010000000100000060
:100C90000100000001000000010000000100000050
:100CA0000100000001000000010000000100000040
:100CB0000100000001000000000000000000000032
:100CC0000100000001000000010000000100000020
:100CD0000100000001000000010000000100000010
:100CE0000100000001000000010000000100000000
:100CF00001000000010000000100000001000000F0
:100D000001000000010000000100000001000000DF
:100D100001000000010000000100000001000000CF
:100D200001000000010000000100000001000000BF
:100D300001000000010000000100000001000000AF
:100D4000010000000100000001000000010000009F
:100D5000010000000100000001000000010000008F
:100D6000010000000100000001000000010000007F
:100D7000010000000100000001000000010000006F
:100D8000010000000100000001000000010000005F
:100D90000100000003000200030002000300020043
:100DA0000300020003000200020002000200020031
:100DB000030002000300020003000200030002001F
:100DC000030002000300020003000200030002000F
:100DD00003000200030002000300020003000200FF
:100DE00003000200030002000300000001000000F5
:100DF00001000000010000000100000001000000EF
:100E000001000000010000000100000001000000DE
:100E100001000000010000000100000001000000CE
:100E200001000000010000000100000001000000BE
:100E300001000000010000000100000001000000AE
:100E4000010000000100000001000000010000009E
:100E5000010000000100000001000000010000008E
:100E6000010000000100000001000000010000007E
:100E7000010000000100000001000000010000006E
:100E8000010000000100000001000000010000005E
:100E90000100000001000000000000000000000050
:100EA000010000000100000001000000010000003E
:100EB000010000000100000001000000010000002E
:100EC000010000000100000001000000010000001E
:100ED000010000000100000001000000010000000E
:100EE00001000000010000000100000001000000FE
:100EF00001000000010000000100000001000000EE
:100F000001000000010002000300020003000300D2
:100F100003000300020003000200030002000300BC
:100F200002000300020003000200030002000300AD
:100F300002000300020003000000010000000100A5
:100F4000000001000000010000000100000001009D
:100F5000000001000000010000000100000001008D
:100F6000000001000000010000000100000001007D
:100F7000000001000000010000000100000001006D
:100F80000000010001000100010000000300030057
:100F9000020003000300020003000300020003003C
:100FA000030002000300030002000300030002002C
:100FB000030003000200030003000200030003001B
:100FC000020003000300020003000300020003000C
:100FD000010000000100010000000100010000000C
:100FE00003000300020003000300030003000300EA
:100FF00003000300030002000300030002000300DB
:1010000003000200030003000200030003000200CB
:1010100003000300020003000300020003000300BA
:1010200002000300030002000300030002000300AB
:10103000030002000300030002000300030000009D
:101040000100010000000100010000000300030096
:101050000200030003000300010001000100010081
:101060000300020003000300020001000100000071
:10107000010001000200030003000200030003005E
:10108000020003000300020003000300020003004B
:10109000030002000300030002000300030002003B
:1010A0000300030002000300010000000100010032
:1010B0000000010001000000030003000200030023
:1010C0000300030001000100010001000300020011
:1010D0000300030002000100010000000100010004
:1010E00002000300030002000300010000000100F1
:1010F00001000000030003000200030003000200DF
:1011000003000300020003000300020003000300C9
:1011100002000300010000000100010000000100C6
:1011200001000000030003000200030003000300AD
:1011300001000100010001000300020003000000A3
:101140000300000001000000010000000100000099
:10115000010000000100000001000000010000008B
:10116000010000000100000001000000010000007B
:101170000100000001000200030002000300020061
:10118000030002000300020003000200030002004B
:10119000030002000300020003000200030002003B
:1011A000030002000300020003000200030002002B
:1011B000030002000300020003000200030002001B
:1011C0000300020003000200010000000100000013
:1011D000010000000100000001000000010000000B
:1011E00001000000010000000100000001000200F9
:1011F00003000200030002000300020003000200DB
:1012000003000200030002000300020003000200CA
:1012100003000200030002000300020003000200BA
:1012200003000200030002000300020002000200AB
:10123000020002000300020003000200030002009B
:10124000030002000300020003000200030002008A
:10125000030002000300020003000200030002007A
:101260000300000001000000010000000100000078
:10127000010000000100000001000000010000006A
:10128000010000000100000001000000010000005A
:10129000010000000100000001000000010000004A
:1012A000010000000100000001000000010000003A
:1012B000010002000300020003000200030002001C
:1012C000030002000300020003000200030002000A
:1012D00003000200030002000300020001000000FE
:1012E00001000000010000000100000001000000FA
:1012F00001000000010000000100000001000000EA
:1013000001000000010000000100000001000000D9
:1013100001000000010000000100000000000000CA
:1013200000000000030002000300020003000200AE
:101330000300020003000200030002000300020099
:10134000030002000300020003000200020002008A
:10135000020002000300020003000200030002007A
:10136000030002000300020003000000010000006F
:101370000100000001000000010002000300020063
:101380000300020003000200030002000300020049
:101390000300020003000200030002000300020039
:1013A000030002000300020003000200020002002A
:1013B000020002000300020003000200030002001A
:1013C000030002000300020003000000010000000F
:1013D0000100000001000000010002000200020004
:1013E00002000200030002000300020003000200EA
:1013F00003000200030002000300020003000200D9
:1014000003000200030002000300020003000200C8
:1014100003000200030002000300020001000000BC
:1014200001000000010000000100000003000200B4
:1014300003000000010000000100020002000200A1
:101440000200020003000200030002000300020089
:101450000300020003000200030002000300020078
:101460000300020003000200030002000300020068
:101470000100000001000000010000000100000068
:101480000100000001000000010000000100000058
:101490000100000001000000010000000100000048
:1014A0000100000001000000010000000100000038
:1014B0000100000001000000010000000100000028
:1014C000010000000100020003000200030002000E
:1014D00003000200030002000300020003000200F8
:1014E00003000200030002000100000001000000F0
:1014F00001000000010000000100000001000000E8
:1015000001000000010000000100000001000000D7
:1015100001000000010000000100000001000000C7
:1015200001000000010000000100000000000000B8
:1015300000000000010000000100000001000000A8
:101540000100000001000000010000000100000097
:101550000100000001000000010000000100000087
:101560000300020003000200030002000300020067
:101570000300020003000200030002000300020057
:101580000300020003000200030002000300020047
:101590000300020003000200030002000300020037
:1015A0000300020003000200030002000300020027
:1015B0000300020003000000010000000100000021
:1015C0000100000001000000010000000100000017
:1015D00001000000010000000300020003000200FF
:1015E00003000200030002000300020003000200E7
:1015F00003000200030002000300020003000200D7
:1016000003000200030002000300020003000200C6
:1016100003000200030002000300020002000200B7
:1016200002000200010000000100000001000000B3
:1016300001000000010000000100000001000000A6
:101640000100000001000000010000000100000096
:101650000100000001000000010000000100000086
:101660000100000001000000010000000100000076
:101670000100000001000000010000000100000066
:101680000100000001000000010000000100000056
:101690000100000001000000010000000100000046
:1016A0000100000001000000010000000100000036
:1016B0000100000001000000010000000100000026
:1016C0000100000001000000010000000100000016
:1016D0000100000001000000010000000100000006
:1016E00001000000010000000100000001000000F6
:1016F00001000000010000000300020003000200DE
:1017000003000200030002000300020002000200C6
:1017100002000200030002000300020003000200B6
:1017200003000200030002000300020003000200A5
:10173000030002000300020001000000010000009D
:101740000100000001000000010000000100000095
:101750000100000001000000010000000100000085
:101760000100000001000000010000000100000075
:101770000100000001000000010000000100000065
:101780000100000001000000010000000100000055
:101790000100000001000000010000000100000045
:1017A0000100000001000000010000000100000035
:1017B0000100000001000000010000000100000025
:1017C0000100000001000000010000000100000015
:1017D0000100000001000000010000000100000005
:1017E00001000000010000000100000001000000F5
:1017F00001000000010000000100000000000000E6
:1018000000000000020000000300020003000200CC
:1018100003000200030002000300020003000200B4
:1018200003000200030002000300020003000200A4
:101830000300020003000200030002000100000098
:101840000100000001000000010000000100000094
:101850000100000001000000010000000100000084
:101860000100000001000000010000000100000074
:101870000100000001000000010000000100000064
:101880000100000001000000010000000100000054
:101890000300020003000200030002000300020034
:1018A0000300020003000200030002000300020024
:1018B0000300020001000000010000000100000020
:1018C0000100000001000000010000000100000014
:1018D0000100000001000000010000000100000004
:1018E00001000000010000000100000001000000F4
:1018F00000000000000000000100000001000000E6
:1019000001000000010000000100000001000000D3
:1019100001000000010000000100000001000000C3
:1019200001000000010000000100020003000200AD
:101930000300020003000200030002000300020093
:101940000300020003000200030002000300020083
:101950000300020003000200030002000300020073
:101960000300020003000200030002000300020063
:101970000300020003000200030002000300020053
:101980000100000001000000010000000100000053
:101990000100000001000000010000000100000043
:1019A0000100000001000000010000000100000033
:1019B0000100000001000000010000000100000023
:1019C0000100000001000000010000000100000013
:1019D00001000000010002000300020003000200F9
:1019E00002000200020002000100000001000000ED
:1019F00001000000010000000100000001000000E3
:101A000001000000010000000100000001000000D2
:101A100001000000010000000100000001000000C2
:101A200001000000010000000100000001000000B2
:101A300001000000010000000100000001000000A2
:101A40000100000001000000010000000100000092
:101A50000100000001000000010000000100000082
:101A60000100000001000000010000000100000072
:101A70000100000001000000010000000100000062
:101A80000100000001000000010000000100000052
:101A9000000000000000000003000200030002003C
:101AA0000300020003000200030002000300020022
:101AB000030002000300000001000000010000001C
:101AC0000100000001000200030002000300020008
:101AD00003000200030000000100000001000000FC
:101AE00001000000010000000100000001000000F2
:101AF00001000000010000000100000001000000E2
:101B000001000000010000000100000001000200CF
:101B100003000200030002000300020003000200B1
:101B200000000000000000000100000001000000B3
:101B300001000000010000000100000001000000A1
:101B40000100000001000000010000000100000091
:101B50000100000001000200030002000300020077
:101B60000300020003000200030002000300020061
:101B70000300020003000200030002000300020051
:101B80000300020003000200030002000300000043
:101B9000010000000100000001000000010002003F
:101BA0000300020003000200030002000300020021
:101BB000020002000200020001000000010000001B
:101BC0000100000001000000010000000100000011
:101BD0000100000001000000010000000100000001
:101BE00001000000010000000100000001000000F1
:101BF00001000000010000000100000001000000E1
:101C000001000000010000000100000001000000D0
:101C100001000000010000000100000001000000C0
:101C200001000000010000000100000001000000B0
:101C300001000000010000000100000001000000A0
:101C40000100000000000000010000000100000091
:101C50000100000001000000010000000100000080
:101C60000100000001000000010000000100000070
:101C70000100000001000000010000000100000060
:101C80000100000001000000010000000100000050
:101C90000100000001000000010000000100000040
:101CA0000100000000000000010000000100000031
:101CB0000100000001000000010000000100000020
:101CC0000100000001000000010000000100000010
:101CD0000100000000000000010000000100000001
:101CE00001000000010000000100000001000000F0
:101CF00001000000010000000100000001000000E0
:101D000001000000010000000100000001000000CF
:101D100001000000010000000100000001000000BF
:101D200001000000010000000100000001000000AF
:101D3000010000000100000001000000010002009D
:101D4000030002000300020003000200030002007F
:101D5000030002000300020003000200030002006F
:101D6000030002000300020003000200030002005F
:101D7000030002000300020003000200030002004F
:101D80000300020003000200030002000100000043
:101D9000010000000100000001000000010000003F
:101DA000010000000100000001000000010000002F
:101DB000010000000100000001000000010000001F
:101DC0000000000000000000010000000100000011
:101DD00001000000010000000100000001000000FF
:101DE00001000000010000000100000001000000EF
:101DF00001000000010000000100000001000000DF
:101E000001000000010000000100000001000000CE
:101E100001000000010000000100000001000000BE
:101E200001000000010000000100000001000000AE
:101E3000010000000100000001000000010000009E
:101E4000010000000100000001000000010000008E
:101E5000010000000100000001000000010000007E
:101E6000010000000100000001000000010000006E
:101E7000010000000100000001000000010000005E
:101E8000010000000100000001000000010000004E
:101E9000010000000100000001000000010000003E
:101EA000010000000100000001000000010000002E
:101EB0000000000000000000010000000100000020
:101EC000010000000100000001000000010000000E
:101ED00001000000010000000100000001000000FE
:101EE00001000000010000000100000001000000EE
:101EF00001000000010000000100000001000000DE
:101F000001000000010000000100000001000000CD
:101F100001000000010000000100000001000000BD
:101F200001000000010000000100000001000000AD
:101F3000010000000100000001000000010000009D
:101F4000010000000100000001000000010000008D
:101F5000010000000100000001000000010000007D
:101F6000010002000300020003000200030002005F
:101F7000030002000300020003000200030002004D
:101F8000030002000300020003000200030002003D
:101F90000300020003000200010000000100000035
:101FA000000000000000000001000000010000002F
:101FB000010000000100000001000000010000001D
:101FC000010000000100000001000000010000000D
:101FD00001000000010000000100000001000000FD
:101FE00001000000010000000100000001000000ED
:101FF00001000000010000000100000001000000DD
:1020000001000000010000000100000001000000CC
:1020100001000000010000000100000001000000BC
:1020200001000000010000000100000001000000AC
:10203000010000000100000001000000010000009C
:10204000010000000100000001000000010000008C
:10205000010000000100000001000000010000007C
:10206000010000000100000001000000010000006C
:10207000010000000100000001000000010000005C
:10208000010000000100000001000000010000004C
:102090000000000000000000030002000300020036
:1020A000030002000300020003000200030002001C
:1020B000030002000300020003000200030002000C
:1020C00003000200030002000300020003000200FC
:1020D00003000200030002000300020003000200EC
:1020E00002000000010000000100000001000000EB
:1020F00001000000010000000100000001000000DC
:1021000001000200030002000300020003000200BD
:1021100003000200030002000300020003000200AB
:10212000030002000300020003000200020002009C
:10213000030002000300020003000200030002008B
:10214000030002000300020003000200030002007B
:10215000030002000300020003000200030002006B
:10216000030002000300020003000200030002005B
:102170000300020003000200000000000100000054
:10218000010000000100000001000000010000004B
:10219000010000000100000001000000010000003B
:1021A000010000000100000001000000010000002B
:1021B000010000000100000001000000010000001B
:1021C0000100000000000200030002000300020002
:1021D00003000200030002000300020003000200EB
:1021E00003000200030000000100000001000000E5
:1021F00001000000010000000100000001000000DB
:1022000001000000010000000100000001000000CA
:1022100000000000010000000100000001000000BB
:1022200001000000010000000100000001000000AA
:10223000010000000100000001000000010000009A
:10224000010000000100000001000000010000008A
:102250000100000001000000010000000000020079
:102260000100000001000000010000000300020066
:10227000030002000300020003000200030002004A
:10228000030002000300020003000200030002003A
:10229000010000000100000001000000010000003A
:1022A000010000000100000001000000010000002A
:1022B000010000000100000001000000010000001A
:1022C000010000000100000001000000010000000A
:1022D00000000100010000000100000001000000FA
:1022E00001000000010000000100000001000000EA
:1022F00001000000030002000300020003000200CE
:1023000003000200030000000100000001000000C3
:1023100001000000010000000100000001000000B9
:1023200001000000010000000100000001000000A9
:102330000100000001000000010000000100000099
:102340000100000001000000000001000100000089
:102350000100000001000000010000000100000079
:10236000010000000300020003000200030002005D
:102370000300020003000200030002000300020049
:102380000100000001000000010000000100000049
:102390000100000001000000010000000100000039
:1023A0000300020003000200030002000300020019
:1023B0000300020003000200030002000300020009
:1023C00002000300030002000300020003000200F9
:1023D00003000200030002000300020003000200E9
:1023E00001000000010000000100000003000200E5
:1023F00003000200030002000100000001000000D1
:1024000001000000010000000100000001000000C8
:1024100001000000010000000100000001000000B8
:1024200001000000010000000100000001000000A8
:102430000100000001000000000001000100000098
:102440000100000001000000010000000100000088
:102450000100000001000000010000000100000078
:102460000100000001000000010000000100000068
:102470000100000001000000010000000100000058
:102480000100000001000000010000000100000048
:102490000100000001000000010000000100000038
:1024A000010000000300020003000200030002001C
:1024B0000300020003000200030002000300020008
:1024C00003000200030002000300020003000200F8
:1024D00003000200030002000300020003000200E8
:1024E00003000200030002000300020003000200D8
:1024F00003000200010000000100000001000000D4
:1025000001000000010000000100000001000000C7
:1025100001000000010000000100000001000000B7
:1025200001000000010000000000000000000000A9
:102530000100000001000000010000000100000097
:102540000100000001000000010000000100000087
:102550000100000001000000010000000100000077
:102560000100000001000000010000000100000067
:102570000100000001000000010000000100000057
:102580000100000001000000010000000100000047
:102590000100000001000000010000000100000037
:1025A0000100000001000000010000000100000027
:1025B0000100000001000000010000000100000017
:1025C0000100000001000000010000000100000007
:1025D00001000000010000000100000001000000F7
:1025E00001000000010000000100000001000000E7
:1025F00001000000010000000100000001000000D7
:1026000001000000010000000100000001000000C6
:1026100001000000010000000000000000000000B8
:1026200001000000010000000100000001000000A6
:102630000100000001000000010000000100000096
:102640000100000001000000010000000100000086
:102650000100000001000000010000000100000076
:102660000100000001000000010000000100000066
:102670000100000001000000010000000100000056
:102680000100000001000000010000000100000046
:102690000100000001000000010000000100000036
:1026A0000100000001000000010000000100000026
:1026B0000100000001000000010000000100000016
:1026C0000100000001000000010000000300020002
:1026D00003000200030002000300020003000200E6
:1026E00003000200030002000300020003000200D6
:1026F00003000200010000000100000001000000D2
:1027000001000000010000000000000000000000C7
:1027100001000000010000000100000001000000B5
:1027200001000000010000000100000001000000A5
:102730000100000001000000010000000100000095
:102740000100000001000000010000000100000085
:102750000100000001000000010000000100000075
:102760000100000001000000010000000100000065
:102770000100000001000000010000000100000055
:102780000100000001000000010000000100000045
:102790000100000001000000010000000100000035
:1027A0000100000001000000010000000100000025
:1027B0000100000001000000010000000100000015
:1027C0000100000001000000010000000100000005
:1027D00001000000010000000100000001000000F5
:1027E00001000000010000000100000001000000E5
:1027F00001000000010000000000000000000000D7
:1028000001000000010000000100000001000000C4
:1028100001000000010000000100000001000000B4
:1028200001000000010000000100000001000000A4
:102830000100000001000000010000000100000094
:102840000100000001000000010000000100000084
:102850000100000001000000010000000100000074
:102860000100000001000000010000000100000064
:102870000100000001000000010000000100000054
:102880000100000001000000010000000100000044
:102890000100000001000000010000000100000034
:1028A0000100000001000000010000000100000024
:1028B0000100000001000000010000000100000014
:1028C0000100000001000000010000000100000004
:1028D00001000000030002000300020003000200E8
:1028E00003000200030002000200020002000200D6
:1028F00003000200030002000300020003000200C4
:1029000003000200030002000300020003000200B3
:1029100003000200030002000300020003000200A3
:1029200003000000010000000100000001000000A1
:102930000100000001000000010000000100000093
:102940000100000001000000010000000100000083
:102950000100000001000000010000000100000073
:102960000100000001000000010000000100000063
:102970000100000001000000010000000100000053
:102980000100000001000000010000000100000043
:102990000100000001000000010000000100000033
:1029A0000100000001000000010000000100000023
:1029B0000100000001000000010000000100000013
:1029C0000100000001000000010000000100000003
:1029D00001000000010000000000000000000000F5
:1029E00001000000010000000100000001000000E3
:1029F00001000000010000000100000001000000D3
:102A000001000000010000000100000001000000C2
:102A100001000000010000000100000001000000B2
:102A20000100000001000200030002000300020098
:102A30000300020003000200030002000300020082
:102A40000300020003000200030002000300020072
:102A50000300020003000200030002000300020062
:102A60000300020003000200030002000300020052
:102A70000300020003000200030000000100000048
:102A80000100000001000000010000000100000042
:102A90000100000001000000010000000100000032
:102AA0000100000001000000010000000100000022
:102AB0000100000001000000010000000100000012
:102AC0000100000001000000000000000000000004
:102AD00001000000010000000100000001000000F2
:102AE00001000000010000000100000001000000E2
:102AF00001000000010000000100000001000000D2
:102B000001000000010000000100000001000000C1
:102B100001000000010000000100000001000000B1
:102B200001000000010000000100000001000000A1
:102B30000100000001000000010000000100000091
:102B40000100000001000000010000000100000081
:102B50000100000001000000010000000100000071
:102B60000100000001000000010000000100000061
:102B70000100000001000000010000000100000051
:102B80000100000001000000010000000100000041
:102B90000100000001000000010000000100000031
:102BA0000100000001000000010000000100000021
:102BB0000100000001000000000000000000000013
:102BC0000100000001000000010000000100000001
:102BD00001000000010000000100000001000000F1
:102BE00001000000010000000100000001000000E1
:102BF00001000000010000000100000001000000D1
:102C000001000000010000000100000001000000C0
:102C100001000000010000000100000001000000B0
:102C200001000000010000000100000001000000A0
:102C30000100000001000000010000000100000090
:102C40000100000001000000010000000100000080
:102C50000100000001000000010000000100000070
:102C60000100000001000000010000000100000060
:102C70000100000001000000010000000100000050
:102C80000300020003000200030002000300020030
:102C90000300020003000200030002000300020020
:102CA0000300020003000200020002000200000014
:102CB0000100000001000000010000000100000010
:102CC0000100000001000000010000000100000000
:102CD00001000000010000000100000001000000F0
:102CE00001000000010000000100000001000000E0
:102CF00001000000010000000100000001000000D0
:102D000001000000010000000100000001000000BF
:102D100001000000010000000100000001000000AF
:102D2000010000000100000001000000010000009F
:102D3000010000000100000001000000010000008F
:102D4000010000000100000001000000010000007F
:102D5000010000000100000001000000010000006F
:102D6000010000000100000001000000010000005F
:102D7000010000000100000001000000010000004F
:102D8000010000000100000001000000010000003F
:102D90000100000001000000000000000000000031
:102DA000010000000100000001000000010000001F
:102DB000010000000100000001000000010000000F
:102DC00001000000010000000100000001000000FF
:102DD00001000000010000000100000001000000EF
:102DE00001000000010000000100000003000200DB
:102DF00003000200030002000300020003000200BF
:102E000003000200030002000300020003000200AE
:102E1000030002000300020003000200030002009E
:102E2000030002000300020003000200030002008E
:102E3000030002000300020003000200030002007E
:102E4000030002000300020003000200030002006E
:102E5000030002000300020003000200030002005E
:102E6000030002000300020003000200030002004E
:102E7000030002000300020003000200030002003E
:102E80000300020003000200020002000200020030
:102E9000030002000300020003000200030002001E
:102EA000030002000300020003000200030002000E
:102EB00003000200030002000300020003000200FE
:102EC00003000200030002000300020003000200EE
:102ED00003000200030000000100000001000000E8
:102EE00001000000010000000100000001000000DE
:102EF00001000000010000000100000001000000CE
:102F000001000000010000000100000001000000BD
:102F100001000000010000000100000001000000AD
:102F2000010000000100000001000000010000009D
:102F3000010000000100000001000000010000008D
:102F4000010000000100000001000000010000007D
:102F5000010000000100000001000000010000006D
:102F6000010000000100000001000000010000005D
:102F7000010000000100000000000000000000004F
:102F8000010000000100000001000000010000003D
:102F9000010000000100000001000000010000002D
:102FA000010000000100000001000000010000001D
:102FB000010000000100000001000000010000000D
:102FC00001000000010000000100000001000000FD
:102FD00001000000010000000100000001000000ED
:102FE00001000000010000000100000001000000DD
:102FF00001000000010000000100000001000000CD
:1030000001000000010000000100000001000000BC
:1030100001000000010000000100000001000000AC
:10302000010000000100000001000000010000009C
:10303000010000000100000001000000010000008C
:10304000010000000100000001000000010000007C
:10305000010000000100000001000000010000006C
:10306000030002000300020002000200020002004E
:10307000030002000300020003000200030002003C
:103080000300020003000000010000000100000036
:10309000010000000100000001000000010000002C
:1030A000010000000100000001000000010000001C
:1030B000010000000100000001000000010000000C
:1030C00001000000010000000100000001000000FC
:1030D00001000000010000000100000001000000EC
:1030E00001000000010000000100000001000000DC
:1030F00001000000010000000100000001000000CC
:1031000001000000010000000100000001000000BB
:1031100001000000010000000100000001000000AB
:10312000010000000100000001000000010000009B
:10313000010000000100000001000000010000008B
:10314000010000000100000001000000010000007B
:10315000010000000100000000000000000000006D
:10316000010000000000000000000000000000005E
:10317000000000000000000000000000000000004F
:10318000000000000000000001000000000000003E
:10319000000000000000000000000000000000002F
:1031A000000000000000000000000000000000001F
:1031B000010000000000000000000000000000000E
:1031C00000000000000000000000000000000000FF
:1031D00000000000000000000100000000000100ED
:1031E00001000000000000000000000000000000DE
:1031F00000000000000000000000000000000000CF
:1032000001000000000000000000000000000000BD
:1032100000000000000000000000000000000000AE
:10322000000000000000000001000000000000009D
:10323000000000000000000000000000000000008E
:10324000000000000000000000000000000000007E
:10325000010000000000010001000000000000006B
:10326000000000000000000000000000000000005E
:10327000000000000000000001000000010000004C
:10328000010000000100000001000000010000003A
:10329000010000000100000001000000010000002A
:1032A000010000000100000001000000010000001A
:1032B000010000000100000001000000010000000A
:1032C00001000000010000000100000001000000FA
:1032D00001000000010000000100000001000000EA
:1032E00001000000010000000100000001000000DA
:1032F00001000000010000000100000001000000CA
:1033000001000000010000000100000001000000B9
:1033100001000000010000000100000001000000A9
:103320000100000001000000010000000100000099
:103330000100000001000000010000000100000089
:103340000100000001000000010000000100000079
:10335000010002000300020003000200030002005B
:10336000020002000200020003000200030002004B
:103370000300020003000200030002000300020039
:103380000300020003000200030002000300020029
:103390000300020003000200030002000300020019
:1033A0000300020001000000010000000100000015
:1033B0000100000001000000010000000100000009
:1033C00001000000010000000100000001000000F9
:1033D00001000000010000000100000001000000E9
:1033E00001000000010000000100000001000000D9
:1033F00001000000010000000100000001000000C9
:1034000001000000010000000100000001000000B8
:1034100001000000010000000100000001000000A8
:103420000100000001000000010000000100000098
:103430000100000001000000010000000100000088
:103440000100000001000000010000000100000078
:103450000000000000000000030002000300020062
:103460000300020003000200030002000300020048
:103470000300020003000200030002000300020038
:103480000300020003000200030002000300020028
:103490000300000001000000000000000000000028
:1034A000010002000200020002000200030002000C
:1034B00003000200030002000300020003000200F8
:1034C00003000200030002000300020003000200E8
:1034D00003000200030002000300020001000000DC
:1034E00000000000000000000100000003000200D6
:1034F00003000200030002000300020003000200B8
:1035000003000200030002000300020003000200A7
:103510000300020003000200030002000300020097
:103520000300020003000200020002000200020089
:103530000300020002000200020002000300020079
:103540000300020003000200030002000300020067
:103550000300020003000200030002000300020057
:103560000300020003000200030002000300020047
:1035700002000200020002000000000023002600FA
:1035800029000000000800020100000304070000F9
:1035900000000000000000000000250028002B00B3
:1035A00000000000240027002A000404040404048E
:1035B00004040202020202020303030303030102E2
:1035C00004081020408001020408102001020408B1
:1035D00010209F2611241FBECFEFD8E0DEBFCDBF45
:1035E00014E0A0E0B1E0E8E2F9E502C005900D9238
:1035F000A434B107D9F725E0A4E4B4E001C01D92DA
:10360000AE3DB207E1F71AE1CAEEDAE104C0219754
:10361000FE010E948C2CC93ED107C9F70E94E72603
:103620000C94922C0C94000090E0FC01E254FA4CB3
:10363000249186559A4CFC018491882399F090E05E
:10364000880F991FFC01E056FA4CA591B491FC013A
:10365000EA56FA4C859194918FB7F894EC91E22B4D
:10366000EC938FBF089508950895AF92BF92CF92C3
:10367000DF92EF92FF920F931F93CF93DF936C0132
:103680007B018B01040F151FEB015E01AE18BF0813
:10369000C017D10759F06991D601ED91FC910190C5
:1036A000F081E02DC6010995892B79F7C501DF91DD
:1036B000CF911F910F91FF90EF90DF90CF90BF902F
:1036C000AF900895FC01538D448D252F30E0842F59
:1036D00090E0821B930B541710F0CF96089501973A
:1036E0000895FC01918D828D981761F0A28DAE0F27
:1036F000BF2FB11D5D968C91928D9F5F9F73928FAE
:1037000090E008958FEF9FEF0895FC01918D828DD9
:10371000981731F0828DE80FF11D858D90E00895A6
:103720008FEF9FEF0895FC01918D228D892F90E0FE
:10373000805C9F4F821B91098F739927089589E2BE
:1037400095E00E94931B21E0892B09F420E0822F51
:10375000089580E090E0892B29F00E949F1B811141
:103760000C9400000895FC01A48DA80FB92FB11D81
:10377000A35ABF4F2C91848D90E001968F739927A7
:10378000848FA689B7892C93A089B1898C91837085
:1037900080648C93938D848D981306C00288F3897E
:1037A000E02D80818F7D80830895EF92FF920F93AB
:1037B0001F93CF93DF93EC0181E0888F9B8D8C8DDD
:1037C00098131AC0E889F989808185FF15C09FB7D1
:1037D000F894EE89FF896083E889F9898081837094
:1037E000806480839FBF81E090E0DF91CF911F9143
:1037F0000F91FF90EF900895F62E0B8D10E00F5F64
:103800001F4F0F731127E02E8C8D8E110CC00FB639
:1038100007FCFACFE889F989808185FFF5CFCE01D1
:103820000E94B31BF1CFEB8DEC0FFD2FF11DE35A7E
:10383000FF4FF0829FB7F8940B8FEA89FB89808154
:103840008062CFCFCF93DF93EC01888D8823B9F0CE
:10385000AA89BB89E889F9898C9185FD03C080819B
:1038600086FD0DC00FB607FCF7CF8C9185FFF2CF18
:10387000808185FFEDCFCE010E94B31BE9CFDF91A0
:10388000CF910895833081F028F4813099F082300F
:10389000A9F008958730A9F08830C9F08430B1F4D8
:1038A000809180008F7D03C0809180008F7780930E
:1038B0008000089584B58F7784BD089584B58F7D89
:1038C000FBCF8091B0008F778093B00008958091F6
:1038D000B0008F7DF9CFCF93DF93282F30E0F9012F
:1038E000EE57FA4C8491F901E254FA4CD491F90163
:1038F000E655FA4CC491CC23A1F081110E94421CE0
:10390000EC2FF0E0EE0FFF1FE858FA4CA591B491B0
:10391000EC91ED2381E090E009F480E0DF91CF911C
:10392000089580E090E0FACF1F93CF93DF93282F84
:1039300030E0F901EE57FA4C8491F901E254FA4C67
:10394000D491F901E655FA4CC491CC23A9F0162F75
:1039500081110E94421CEC2FF0E0EE0FFF1FEA568F
:10396000FA4CA591B4918FB7F894EC91111108C05D
:10397000D095DE23DC938FBFDF91CF911F91089507
:10398000DE2BF8CF8E50806480937C0080917A008B
:10399000806480937A0080917A0086FDFCCF8091CC
:1039A00078009091790008953FB7F89480910105CF
:1039B00090910205A0910305B091040526B5A89B3E
:1039C00005C02F3F19F00196A11DB11D3FBFBA2FB1
:1039D000A92F982F8827BC01CD01620F711D811D71
:1039E000911D42E0660F771F881F991F4A95D1F7F6
:1039F00008958F929F92AF92BF92CF92DF92EF92F3
:103A0000FF924B015C010E94D41C6B017C010E945F
:103A1000D41C6C197D098E099F09683E734081058D
:103A20009105A8F321E0821A9108A108B10888EE57
:103A3000C80E83E0D81EE11CF11C81149104A1047E
:103A4000B10429F7FF90EF90DF90CF90BF90AF9037
:103A50009F908F9008952091B204260F3327331F33
:103A600021323105ECF42091D604FC0190E080E095
:103A7000243069F082E00895A091B2042191AC0154
:103A80004E565B4FA40FB52FB11D2C930196861790
:103A900098F38091B204680F6093B20480E00895B7
:103AA00081E008951092D60481E08093D8041092AA
:103AB000D70461E082E10E94941C61E083E10E94EE
:103AC000941CE9EBF0E080818E7F808380818D7F84
:103AD000808388E48093B80085E48093BC000895D7
:103AE000CF93DF9391E0909391048823B9F0C09134
:103AF000B800D091BA008091BC008A7B8093BC0052
:103B000060E082E10E94941C60E083E10E94941CCA
:103B10000E94521DD093BA00C093B800DF91CF919C
:103B200008950895E0910C0580910B05E81730F495
:103B3000F0E0E459FB4F808190E008958FEF9FEF14
:103B4000089590910C0580910B052FEF3FEF98178A
:103B500048F4E92FF0E0E459FB4F208130E09F5F0B
:103B600090930C05C901089580910B0590910C0567
:103B7000891B990B0895CF92DF92EF92FF920F93DA
:103B80001F93CF93DF937C01CB018A0120916B04BB
:103B9000222389F0EB016B01C40ED51ECC15DD0587
:103BA00069F06991D701ED91FC910190F081E02DD0
:103BB000C7010995F3CF642F0E942B1DC801DF9127
:103BC000CF911F910F91FF90EF90DF90CF900895CC
:103BD000CF93DF931F92CDB7DEB7698320916B043B
:103BE0002223F9F020910905203258F021E030E03D
:103BF000FC013383228390E080E00F90DF91CF912E
:103C0000089580910A05E82FF0E0E55BFB4F99816C
:103C100090838F5F80930A058093090581E090E08F
:103C2000ECCF61E0CE0101960E942B1DF7CFCF9221
:103C3000DF92EF92FF920F931F93CF93DF93FC01DC
:103C4000C48121E020936B04C0934A0410920A05BA
:103C5000109209058385682B86EC95E00E94E81D8B
:103C6000D0910905D13208F092C00E94D41C6B019A
:103C70007C018091D604811165C082E08093D604D6
:103C800081E08093D8048FEF8093D5041092FA04DA
:103C9000D093F904ABE4B4E0E9EDF4E080E0D813AC
:103CA00085C01092FB048091FB04CC0FC82BC093FD
:103CB000FB048091D704813009F07CC01092D704B6
:103CC0000E94D41C6B017C018091FB048093BB009B
:103CD00080918D0490918E04A0918F04B0919004F6
:103CE000892B8A2B8B2B99F00E94D41C00918D0478
:103CF00010918E0420918F04309190046C197D09ED
:103D00008E099F090617170728073907E0F18091E8
:103D1000BC0083FDD9CF85EC8093BC000E94D41CED
:103D20006B017C018091D604823009F445C08091FA
:103D3000D5048F3F61F18091D504803241F18091AB
:103D4000D50425C080918D0490918E04A0918F049C
:103D5000B0919004892B8A2B8B2B09F48ACF0E9477
:103D6000D41C00918D0410918E0420918F04309109
:103D700090046C197D098E099F09061717072807FB
:103D8000390708F076CF80918C040E94701D109244
:103D90000A051092090510926B04DF91CF911F91D3
:103DA0000F91FF90EF90DF90CF9008959D919193A8
:103DB0008F5F75CF85EEB0CF80918D0490918E048A
:103DC000A0918F04B0919004892B8A2B8B2B09F43E
:103DD000A9CF0E94D41C00918D0410918E042091D3
:103DE0008F04309190046C197D098E099F09061784
:103DF00017072807390708F095CFC5CF089590E039
:103E000080E00895CF93C82F84EF91E00E94032AA9
:103E1000C81731F06C2F84EF91E0CF910C940B2AEE
:103E2000CF9108958F929F92AF92BF920F931F935D
:103E3000CF93DF93CDB7DEB7A1970FB6F894DEBF6F
:103E40000FBECDBF19A2423008F44AE08E010F5DCB
:103E50001F4F842E912CB12CA12CA50194010E94FE
:103E60004B2AE62FB901CA01EA3044F5E05DD801DA
:103E7000EE938D01232B242B252B79F790E080E006
:103E8000109769F0FD0101900020E9F73197AF012B
:103E90004A1B5B0BBD0182ED95E00E94351BA1968C
:103EA0000FB6F894DEBF0FBECDBFDF91CF911F914B
:103EB0000F91BF90AF909F908F900895E95CD7CFFE
:103EC000009769F0FC0101900020E9F73197AF01FC
:103ED000481B590BBC0182ED95E00C94351B90E01A
:103EE00080E008950F931F93CF938C01C62F0E94FB
:103EF000171E6C2F6460C8010E94171E6C2F6B7F09
:103F0000C8010E94171E83EC90E00197F1F7CF9152
:103F10001F910F9108950F931F93CF93DF938C01FF
:103F2000D62FC42F607F642B0E94721F80E1D89F20
:103F3000B00111246C2BC801DF91CF911F910F911B
:103F40000C94721F40E061E082ED95E00E948B1FAF
:103F50008BE39FE10197F1F70895CF93DF938EE014
:103F60000E94C21CEC01909315058093140565E531
:103F700070E080E090E00E94F91CCE01845A9140EC
:103F8000873E910560F40E94A21F1092160560E022
:103F900082E00E94941C60E083E00E94941CCE5654
:103FA000D109C937D10510F50E94A21F109216053C
:103FB00080911B0590911C05019690931C058093A0
:103FC0001B0520912305309124058217930720F0CB
:103FD00010921C0510921B0580911B050E94021F68
:103FE00064E670E080E090E00E94F91C8091140586
:103FF000909115058A5F91098338910520F50E94FB
:10400000A21F1092160520911B0530911C0521500E
:10401000310930931C0520931B0580912305909155
:1040200024052817390728F0019790931C058093E1
:104030001B0580911B050E94021F64E670E080E072
:1040400090E00E94F91C8091140590911505853629
:10405000910528F40E94A21F81E080931605DF914C
:10406000CF910895CF93DF93CDB7DEB728970FB6E2
:10407000F894DEBF0FBECDBF98E0E4E0F1E0DE01D2
:10408000119601900D929A95E1F79091DA059617A5
:1040900008F46FEF262F30E0220F331F41E050E08D
:1040A0004C0F5D1F240F351FF9016081680F606898
:1040B00040E082ED95E028960FB6F894DEBF0FBE83
:1040C000CDBFDF91CF910C948B1F41E00E948B1FDD
:1040D00081E090E00895CF92DF92EF92FF926C0121
:1040E000990FEE08FF08F7FE16C041E06DE282ED81
:1040F00095E00E948B1F66277727CB016C197D09FD
:104100008E099F094AE00E94121F0196FF90EF90CE
:10411000DF90CF9008954AE0C701B601FF90EF907D
:10412000DF90CF900C94121F85ED8093BC0080919E
:104130008D0490918E04A0918F04B0919004079605
:10414000A11DB11D23E0B695A795979587952A9552
:10415000D1F72091BC0024FD03C01092D60408952D
:1041600040918D0450918E0460918F047091900461
:10417000452B462B472B69F30097A105B10541F06C
:1041800025E32A95F1F700000197A109B109E1CFD4
:1041900080918C040C94701D1F920F920FB60F9299
:1041A00011242F933F934F935F936F937F938F933C
:1041B0009F93AF93BF93EF93FF9389E295E00E94A3
:1041C000B31BFF91EF91BF91AF919F918F917F9121
:1041D0006F915F914F913F912F910F900FBE0F9074
:1041E0001F9018951F920F920FB60F9211242F93C4
:1041F0008F939F93EF93FF93E0913905F0913A05E8
:104200008081E0913F05F091400582FD1BC09081C7
:10421000809142058F5F8F7320914305821741F093
:10422000E0914205F0E0E75DFA4F958F80934205FB
:10423000FF91EF919F918F912F910F900FBE0F9053
:104240001F9018958081F4CF1F920F920FB60F9296
:1042500011242F933F938F939F93AF93BF9380919C
:10426000FD049091FE04A091FF04B09100053091EF
:10427000FC0423E0230F2D3758F50196A11DB11D35
:104280002093FC048093FD049093FE04A093FF040C
:10429000B09300058091010590910205A09103055E
:1042A000B09104050196A11DB11D80930105909365
:1042B0000205A0930305B0930405BF91AF919F91B0
:1042C0008F913F912F910F900FBE0F901F901895D7
:1042D00026E8230F0296A11DB11DD2CF1F920F9287
:1042E0000FB60F9211242F933F934F935F936F93C9
:1042F0007F938F939F93AF93BF93EF93FF9380919F
:10430000B900887F803609F44AC0F0F5883209F494
:10431000A7C018F5803109F49BC0B8F4882309F4CC
:10432000F9C0883009F494C0FF91EF91BF91AF912B
:104330009F918F917F916F915F914F913F912F91BD
:104340000F900FBE0F901F901895883109F488C008
:10435000803251F78093D50414C0803409F49DC095
:1043600040F48033B9F38833F9F68093D50485ECB3
:10437000B0C0803509F485C0883509F496C088340A
:1043800099F60E949420D0CF883909F48CC038F572
:10439000883729F050F4883611F0803729F683E009
:1043A0008093D6041092D40457C0883809F47BC097
:1043B000803919F0803809F0B7CF8091D404803269
:1043C00008F071C0E091D40481E08E0F8093D40492
:1043D0008091BB00F0E0EC54FB4F80833DC0803BFC
:1043E00039F0E0F4803A09F479C0883A09F09CCFBA
:1043F00084E08093D6041092B3041092B204E0914A
:104400000705F091080509958091B20481110FC04C
:1044100081E08093B2041092920409C0803C09F4B8
:10442000A6CF883C09F4A3CF883B09F07DCFE0916B
:10443000B30481E08E0F8093B304F0E0EE56FB4F9F
:1044400080818093BB009091B3048091B20429C015
:104450008091FB048093BB0085EC8093BC0064CF0B
:104460009091FA048091F904981758F5E091FA04B4
:1044700081E08E0F8093FA04F0E0E752FB4F8081D9
:10448000E9CFE091FA0481E08E0F8093FA048091E5
:10449000BB00F0E0E752FB4F80839091FA048091DB
:1044A000F9049817C8F285E8D8CFE091FA0481E0C2
:1044B0008E0F8093FA048091BB00F0E0E752FB4F2F
:1044C00080838091D80481115CCF81E08093D704F0
:1044D00084EA8093BC001092D60426CF85EC8093AA
:1044E000BC001092D6048091D404803230F4E09164
:1044F000D404F0E0EC54FB4F10826091D40470E0DF
:10450000E0910505F091060584EB94E00995109281
:10451000D4040ACF1092D50434CF1F920F920FB655
:104520000F9211242F933F934F935F936F937F9339
:104530008F939F93AF93BF93CF93DF93EF93FF93AB
:10454000C0914604D0914704E0911B05F0911C05F1
:10455000E933F10508F05BC0ED54FD4DCE01880F45
:10456000991F0C948C2CEC2247239F235D237D26DE
:10457000732389233B269F23B523CB239A247625B7
:10458000E123F7230D24232439244F2465247B249D
:1045900091249A24B024C624DC240F26F224082572
:1045A0001E2534254A2560250F267625A225DA25E5
:1045B0008C25A225A5255126AE25C425DA25F02572
:1045C00006260F2625267D263B2651267D26672694
:1045D000802667267D26802628EC30E03093010176
:1045E000209300012CED35E030930301209302016C
:1045F00020E930E03093490420934804FC01E85A54
:10460000FB4C859194919093450480934404809150
:1046100016058823C9F0809144049091450461E017
:104620008130910509F486C360E08230910529F05C
:104630008330910509F07AC361E082E00E94941C06
:1046400061E083E00E94941C2196D0934704C093BC
:1046500046042091480430914904C217D30720F042
:104660001092470410924604FF91EF91DF91CF9191
:10467000BF91AF919F918F917F916F915F914F917A
:104680003F912F910F900FBE0F901F90189528EC1F
:1046900030E030930101209300012CED35E03093A0
:1046A00003012093020120EF30E03093490420936E
:1046B0004804FC01E858FD4CA4CF24E630E03093D8
:1046C00001012093000128EE33E030930301209391
:1046D000020120E530E03093490420934804FC01B6
:1046E000E05AFE4C8ECF28EC30E03093010120934D
:1046F00000012CED35E0309303012093020120EFFF
:1047000030E03093490420934804FC01E056F24D18
:1047100078CF28EC30E030930101209300012CED9C
:1047200035E0309303012093020120EF30E0309315
:10473000490420934804FC01E054F44D62CF24E680
:1047400030E0309301012093000128EE33E03093F4
:104750000301209302012CE330E0309349042093BD
:104760004804FC01E050FE4C4CCF28EC30E0309384
:104770000101209300012CED35E0309303012093DB
:10478000020120EF30E03093490420934804FC01FB
:10479000E050F84D36CF28EC30E030930101209303
:1047A00000012CED35E0309303012093020120EF4E
:1047B00030E03093490420934804FC01E05EF94D59
:1047C00020CF28EC30E030930101209300012CED44
:1047D00035E0309303012093020124EE30E0309362
:1047E000490420934804FC01E856FF4D0ACF28EC09
:1047F00030E030930101209300012CED35E030933F
:1048000003012093020120EF30E03093490420930C
:104810004804FC01E854F14EF4CE28EC30E030932B
:104820000101209300012CED35E03093030120932A
:10483000020120EF30E03093490420934804FC014A
:10484000E852F34EDECE24E630E0309301012093AF
:1048500000012CED35E0309303012093020128E1A3
:1048600030E03093490420934804FC01E855F34EAE
:10487000C8CE24E630E030930101209300012CEDF6
:1048800035E0309303012093020120E330E03093C0
:10489000490420934804FC01E85BF34EB2CE24E6C1
:1048A00030E030930101209300012CED35E030938E
:1048B00003012093020128E430E03093490420935F
:1048C0004804FC01E854F44E9CCE24E630E03093DA
:1048D0000101209300012CED35E03093030120937A
:1048E000020120E930E03093490420934804FC01A0
:1048F000E856F54E86CE24E630E030930101209351
:1049000000012CED35E0309303012093020128E5EE
:1049100030E03093490420934804FC01E851F64EFE
:1049200070CE24E630E030930101209300012CED9D
:1049300035E0CEC028EC30E0309301012093000137
:104940002CED35E0309303012093020120EF30E09D
:104950003093490420934804FC01E05CFB4D51CEA8
:1049600028EC30E030930101209300012CED35E07C
:10497000309303012093020120EF30E0309349048B
:1049800020934804FC01E85FF74E3BCE22E330E081
:10499000309301012093000126E930E030930301B8
:1049A0002093020122E030E0309349042093480430
:1049B000FC01EC5FF74E25CE28EC30E0309301018E
:1049C000209300012CED35E0309303012093020188
:1049D00020EF30E03093490420934804FC01EC5D63
:1049E000F94E0FCE28EC30E0309301012093000106
:1049F0002CED35E0309303012093020120E930E0F3
:104A00003093490420934804FC01EC5DFC4EF9CD41
:104A100028EC30E030930101209300012CED35E0CB
:104A2000309303012093020120EF30E030934904DA
:104A300020934804FC01EC5BFE4EE3CD21E030E026
:104A400030930101209300012AEF30E030930301FD
:104A50002093020122E030E030934904209348047F
:104A6000FC01E05CFE4ECDCD21E030E03093010151
:104A70002093000120E233E03093030120930201F0
:104A800022E030E03093490420934804FC01E45CC8
:104A9000FE4EB7CD28EC30E03093010120930001A9
:104AA0002CED35E0309303012093020128ED30E036
:104AB0003093490420934804FC01E457F04FA1CD02
:104AC00026E930E0309301012093000124EF31E02A
:104AD000309303012093020120EF30E0309349042A
:104AE00020934804FC01E058F04D8BCD28EC30E0D9
:104AF00030930101209300012CED35E03093030148
:104B00002093020120EF30E03093490420934804C1
:104B1000FC01E05AFD4D75CD24E630E030930101F3
:104B2000209300012CED35E0309303012093020126
:104B300020EF30E03093490420934804FC01E05416
:104B4000F34F5FCD24E630E0A4CD2AE832E0309385
:104B50000101209300012EEE32E0A9CE24E630E0E0
:104B600030930101209300012CED35E030930301D7
:104B70002093020120EF30E0309349042093480451
:104B8000FC01E050F74F3DCD22E330E030930101CE
:104B9000209300012EE031E03093030120930201C5
:104BA00020E930E03093490420934804FC01E052AE
:104BB000F84F27CD24E630E0309301012093000127
:104BC0002CED35E0309303012093020126E730E01D
:104BD0003093490420934804FC01E056F14F11CD75
:104BE00026E930E030930101209300012CED35E0FF
:104BF00030930301209302012CEE30E030934904FE
:104C000020934804FC01E85FF94FFBCC28EC30E02E
:104C1000309301012093000120EB34E0C4CD28EC57
:104C200030E030930101209300012CED35E030930A
:104C300003012093020120EF30E0309349042093D8
:104C40004804FC01EC5BFB4EDCCC28EC30E03093FC
:104C50000101209300012CED35E0309303012093F6
:104C6000020120EF30E03093490420934804FC0116
:104C7000E85DFB4FC6CC28EC30E030930101209377
:104C800000012CED35E0309303012093020120EF69
:104C900030E03093490420934804FC01E052F64D83
:104CA000B0CC24E630E030930101209300012CEDDC
:104CB00035E0309303012093020120EF30E0309380
:104CC000490420934804FC01E052F54F9ACC28ECAB
:104CD00030E030930101209300012CED35E030935A
:104CE00003012093020120EF30E030934904209328
:104CF0004804FC01E85BFD4F84CC28EC30E013CE87
:104D000028EC30E030930101209300012CED35E0D8
:104D1000309303012093020120EF30E030934904E7
:104D200020934804FC01E859FF4F6BCC892B09F014
:104D30008BCC60E082E00E94941C60E082CCE9E2CF
:104D4000F5E01382128288EE93E0A0E0B0E0848365
:104D50009583A683B78320E931E03183208325EC56
:104D600030E03587248724EC30E03787268720EC35
:104D700030E0318B208B21EC30E0338B228B22EC26
:104D800030E0358B248B26EC30E0378B268B118E70
:104D9000128E138E148EE6ECF5E013821282848359
:104DA0009583A683B78382EA91E091838083E2EDC5
:104DB000F5E01382128284EB91E09183808387E295
:104DC000848380E1818782E0828713860895CF9370
:104DD000DF93CDB7DEB72A970FB6F894DEBF0FBECC
:104DE000CDBF789484B5826084BD84B5816084BD74
:104DF00085B5826085BD85B5816085BD80916E0079
:104E0000816080936E0010928100809181008260A9
:104E100080938100809181008160809381008091E6
:104E200080008160809380008091B10084608093D5
:104E3000B1008091B00081608093B00080917A00D1
:104E4000846080937A0080917A00826080937A00F7
:104E500080917A00816080937A0080917A008068E6
:104E600080937A001092C10010920C0510920B05ED
:104E700010920A05109209050E94521D83E39BE1DE
:104E8000909308058093070584E39BE190930605C2
:104E9000809305051092D7058091DC05823018F0CB
:104EA00098E09093D7058093DA0562E370E080E0A4
:104EB00090E00E94F91C6091DD0582ED95E00E9472
:104EC000171E68EE73E080E090E00E94F91C60E33A
:104ED00082ED95E00E94721F0BE416E4C801019771
:104EE000F1F760E382ED95E00E94721FC80101971F
:104EF000F1F760E382ED95E00E94721F83E592E096
:104F00000197F1F760E282ED95E00E94721F6091D7
:104F1000D705606240E082ED95E00E948B1F84E03F
:104F20008093D80540E06CE082ED95E00E948B1FF5
:104F30000E94A21F82E08093D90540E066E082EDE6
:104F400095E00E948B1F40E062E082ED95E00E94B8
:104F50008B1F8BE39FE10197F1F788E08093DD05DC
:104F600060E082ED95E00E94171E81E2E1E0F0E052
:104F700080935700949190931305E5E0F0E08093BF
:104F80005700249120931205E9E0F0E08093570048
:104F9000E491E0931105492F420F5527551FE40F67
:104FA000F52FF11DF0931E05E0931D050E94AD1F26
:104FB0008091140590911505892B51F560E081E0F1
:104FC0000E9432206091130570E090E080E04AE09A
:104FD0000E94121F60E085E00E943220609112055D
:104FE00070E090E080E04AE00E94121F60E089E0FB
:104FF0000E9432206091110570E090E080E04AE06C
:105000000E94121F60E177E280E090E00E94F91CAC
:1050100080E10E94C21C9093100580930F0581E1EE
:105020000E94C21C90930E0580930D0561E084E000
:105030000E94941C61E085E00E94941C68EC70E082
:1050400080E090E00E94F91CE0913905F0913A056A
:1050500082E08083E0913505F09136051082E09181
:105060003705F09138058FEC808310924105E0916F
:105070003D05F0913E0586E08083E0913B05F0918F
:105080003C05808180618083E0913B05F0913C0587
:10509000808188608083E0913B05F0913C058081B0
:1050A00080688083E0913B05F0913C0580818F7D95
:1050B000808368EE73E080E090E00E94F91C0E941B
:1050C000A21F60E085E00E9432208CEB91E00E94FC
:1050D000601F61E085E00E94322084EC91E00E9434
:1050E000601F60ED77E080E090E00E94F91C84E0B2
:1050F0000E946B1C892B69F485E00E946B1C892B34
:1051000041F481E090E090932205809321050E9474
:10511000A21F80910F059091100588978B359105FE
:1051200078F480910D0590910E058656934089374D
:10513000910530F481E090E09093200580931F0565
:1051400082E00E94141B83E00E94141B88248A942E
:1051500023E0922EA12CB12C1E015BE0250E311C08
:10516000CC24C394D12C4090000150900101052C17
:10517000000C660877082091020130910301032E8C
:10518000000C440B550B2419350946095709A09109
:105190002705B09128050E94432AA50194010E9489
:1051A000192A420E531E641E751E50922605409207
:1051B000250589E390E09093240580932305809151
:1051C000210590912205019709F0BCC080911F052F
:1051D00090912005019709F0B5C080911D0590912F
:1051E0001E05813B924009F0ADC061E088E00E945D
:1051F00032208BEC91E00E94601F60E083E00E940F
:105200003220E0911B05F0911C05EE0FFF1FE65EBA
:10521000FE4F808191810E94601F00911B051091BB
:105220001C050F5F1F4F60E080E00E943220C80124
:105230000E946B2061E080E00E943220E091160520
:10524000F0E0EE0FFF1FEA5EFE4F808191810E9429
:10525000601F61E08CE00E943220809125059091D2
:1052600026050E946B200E94AD1F8FE00E94C21C89
:105270009093280580932705609125057091260558
:10528000072E000C880B990B0E94932B2B013C01DD
:105290008AE0ECE0F1E0DE01119601900D928A9532
:1052A000E1F7AE014F5F5F4F7A01F7010191119174
:1052B0007F01B801012E000C880B990B0E94932BE3
:1052C000A30192010E941F2C9B01AC010E947D2A28
:1052D0009B01AC0160E074E284E79BE40E94E92A50
:1052E00020E030E040E85FE30E947C2A0E945B2BD4
:1052F00061157105F1E08F0791053CF02E143F0414
:10530000A1F670E060E010E000E0F89410928000F8
:1053100010928100709389006093880080918100D1
:105320008860809381000034110509F442C064F55F
:1053300001301105A1F108301105B9F152E0509387
:105340006F00789484EF91E00E94032A90E090939C
:105350001C0580931B050091250510912605083E2C
:1053600083E0180774F1D0921A05C0921905E0E0A5
:10537000F0E0EF2B09F4F7CE0E949F1B882309F47D
:10538000F2CE0E940000EFCE011521E01207A9F035
:105390000115144099F680918100856003C08091C9
:1053A0008100816080938100C9CF809181008260FB
:1053B000F9CF809181008360F5CF80918100846076
:1053C000F1CF8091190590911A05019731F40E944F
:1053D000A21F10921A0510921905043611052CF01F
:1053E000D0921805C0921705C2CF809117059091F1
:1053F0001805019709F0BBCF0E94A21F1092180553
:1054000010921705B4CFF999FECF92BD81BDF89ADD
:10541000992780B50895262FF999FECF1FBA92BD1E
:1054200081BD20BD0FB6F894FA9AF99A0FBE019685
:105430000895052E97FB1EF400940E94302A57FD14
:1054400007D00E944B2A07FC03D04EF40C94302A5C
:1054500050954095309521953F4F4F4F5F4F0895A0
:1054600090958095709561957F4F8F4F9F4F0895D0
:105470000E946D2AA59F900DB49F900DA49F800D52
:10548000911D11240895B7FF0C94382A0E94382AE0
:10549000821B930B0895A1E21A2EAA1BBB1BFD01D0
:1054A0000DC0AA1FBB1FEE1FFF1FA217B307E40703
:1054B000F50720F0A21BB30BE40BF50B661F771F5B
:1054C000881F991F1A9469F760957095809590953B
:1054D0009B01AC01BD01CF010895A29FB001B39F14
:1054E000C001A39F700D811D1124911DB29F700DED
:1054F000811D1124911D08955058BB27AA270E9491
:10550000942A0C94E52B0E94D72B38F00E94DE2BB6
:1055100020F039F49F3F19F426F40C94D42B0EF4A8
:10552000E095E7FB0C94CE2BE92F0E94F62B58F365
:10553000BA17620773078407950720F079F4A6F578
:105540000C94182C0EF4E0950B2EBA2FA02D0B0105
:10555000B90190010C01CA01A0011124FF27591BB8
:1055600099F0593F50F4503E68F11A16F040A22FBE
:10557000232F342F4427585FF3CF4695379527952F
:10558000A795F0405395C9F77EF41F16BA0B620B2E
:10559000730B840BBAF09150A1F0FF0FBB1F661F75
:1055A000771F881FC2F70EC0BA0F621F731F841FB8
:1055B00048F4879577956795B795F7959E3F08F0DE
:1055C000B0CF9395880F08F09927EE0F97958795A0
:1055D00008950E94FD2A0C94E52B0E94DE2B58F0C2
:1055E0000E94D72B40F029F45F3F29F00C94CE2B7A
:1055F00051110C94192C0C94D42B0E94F62B68F3A7
:105600009923B1F3552391F3951B550BBB27AA277B
:1056100062177307840738F09F5F5F4F220F331FB5
:10562000441FAA1FA9F335D00E2E3AF0E0E832D07D
:1056300091505040E695001CCAF72BD0FE2F29D080
:10564000660F771F881FBB1F261737074807AB0752
:10565000B0E809F0BB0B802DBF01FF2793585F4FC7
:105660003AF09E3F510578F00C94CE2B0C94192CF7
:105670005F3FE4F3983ED4F3869577956795B795A9
:10568000F7959F5FC9F7880F911D9695879597F9B4
:105690000895E1E0660F771F881FBB1F621773072D
:1056A0008407BA0720F0621B730B840BBA0BEE1F42
:1056B00088F7E09508950E94622B6894B1110C94CC
:1056C000192C08950E94FE2B88F09F5798F0B92F4F
:1056D0009927B751B0F0E1F0660F771F881F991F27
:1056E0001AF0BA95C9F714C0B13091F00E94182C85
:1056F000B1E008950C94182C672F782F8827B85F95
:1057000039F0B93FCCF3869577956795B395D9F77E
:105710003EF490958095709561957F4F8F4F9F4F88
:105720000895E89409C097FB3EF490958095709594
:1057300061957F4F8F4F9F4F9923A9F0F92F96E9DD
:10574000BB279395F695879577956795B795F11152
:10575000F8CFFAF4BB0F11F460FF1BC06F5F7F4FEF
:105760008F4F9F4F16C0882311F096E911C0772301
:1057700021F09EE8872F762F05C0662371F096E80A
:10578000862F70E060E02AF09A95660F771F881FD9
:10579000DAF7880F9695879597F9089597F99F6797
:1057A00080E870E060E008959FEF80EC08950024A9
:1057B0000A941616170618060906089500240A9476
:1057C00012161306140605060895092E0394000CFC
:1057D00011F4882352F0BB0F40F4BF2B11F460FF8B
:1057E00004C06F5F7F4F8F4F9F4F089557FD9058B4
:1057F000440F551F59F05F3F71F04795880F97FB95
:10580000991F61F09F3F79F087950895121613064E
:105810001406551FF2CF4695F1DF08C0161617067D
:105820001806991FF1CF86957105610508940895B2
:10583000E894BB2766277727CB0197F908950E9444
:10584000322C0C94E52B0E94D72B38F00E94DE2BD3
:1058500020F0952311F00C94CE2B0C94D42B112412
:105860000C94192C0E94F62B70F3959FC1F3950FA1
:1058700050E0551F629FF001729FBB27F00DB11DD4
:10588000639FAA27F00DB11DAA1F649F6627B00D64
:10589000A11D661F829F2227B00DA11D621F739F4D
:1058A000B00DA11D621F839FA00D611D221F749F5B
:1058B0003327A00D611D231F849F600D211D822FA2
:1058C000762F6A2F11249F5750409AF0F1F08823C9
:1058D0004AF0EE0FFF1FBB1F661F771F881F9150F6
:1058E0005040A9F79E3F510580F00C94CE2B0C94AC
:1058F000192C5F3FE4F3983ED4F38695779567952E
:10590000B795F795E7959F5FC1F7FE2B880F911D1F
:105910009695879597F90895EE0FFF1F0590F491DE
:08592000E02D0994F894FFCF7B
:10592800C800DC0500004000140054000100080015
:10593800400000010004CF01D401DA01E501F101C2
:10594800FA01060210021B02240230023902450243
:10595800530262026E027C0283028D029202970257
:105968009C02A102A602AB02B902C102C502D00282
:10597800D902E502F002FB02080317031C032903FE
:105988003503430350035E036803750383038D03E4
:105998009403A203AA03B603C403CF03DD03EB03F6
:1059A800F803020410041D042A0432040000000055
:1059B800D51B351B621B221C931B711B851B00000A
:1059C8000000E81DBB1DFF1E911DB41DA11D921DE9
:1059D800000000006520351BFF1EFE1E4572204F8B
:1059E8005A494C00534841494B480052504D0053C6
:1059F800544F50005354415254004545434F2042A0
:105A08003420423500544154414143452D314359D6
:105A180000414C544F2D33435900574147454E459B
:105A2800522D3443590053574946542D3443590095
:105A380049323020504554524F4C00544154414152
:105A4800524953004D415858494D4F2D3243590042
:105A580056414E204F4D4E490047454E494F2D3136
:105A68003743353500424F4C45524F2D5049434B33
:105A780055500053434F5250494F2D4D41484157BF
:105A88004B00534B4F44412D4C4155524100564514
:105A9800524E412D464C55494449430044454C50CB
:105AA8004849004544432D31374336330031322DC0
:105AB800310032342D320033362D310033362D3259
:105AC8000034342D320036302D320053434F5250BB
